{
  "_format": "hh-sol-artifact-1",
  "contractName": "FoMoMe",
  "sourceName": "contracts/FoMoMe.sol",
  "abi": [
    {
      "inputs": [],
      "stateMutability": "nonpayable",
      "type": "constructor"
    },
    {
      "inputs": [],
      "name": "ReentrancyGuardReentrantCall",
      "type": "error"
    },
    {
      "anonymous": false,
      "inputs": [
        {
          "indexed": true,
          "internalType": "address",
          "name": "player",
          "type": "address"
        },
        {
          "indexed": false,
          "internalType": "address",
          "name": "host",
          "type": "address"
        },
        {
          "indexed": false,
          "internalType": "uint256",
          "name": "entryAmount",
          "type": "uint256"
        },
        {
          "indexed": false,
          "internalType": "uint256",
          "name": "newDeadline",
          "type": "uint256"
        }
      ],
      "name": "Joined",
      "type": "event"
    },
    {
      "anonymous": false,
      "inputs": [
        {
          "indexed": true,
          "internalType": "address",
          "name": "host",
          "type": "address"
        },
        {
          "indexed": false,
          "internalType": "uint256",
          "name": "deadline",
          "type": "uint256"
        },
        {
          "indexed": false,
          "internalType": "uint256",
          "name": "entryPrice",
          "type": "uint256"
        }
      ],
      "name": "Started",
      "type": "event"
    },
    {
      "anonymous": false,
      "inputs": [
        {
          "indexed": true,
          "internalType": "address",
          "name": "player",
          "type": "address"
        },
        {
          "indexed": false,
          "internalType": "address",
          "name": "host",
          "type": "address"
        },
        {
          "indexed": false,
          "internalType": "uint256",
          "name": "count",
          "type": "uint256"
        },
        {
          "indexed": false,
          "internalType": "uint256",
          "name": "reward",
          "type": "uint256"
        }
      ],
      "name": "Winner",
      "type": "event"
    },
    {
      "inputs": [
        {
          "internalType": "address",
          "name": "_host",
          "type": "address"
        }
      ],
      "name": "conclude",
      "outputs": [],
      "stateMutability": "nonpayable",
      "type": "function"
    },
    {
      "inputs": [
        {
          "internalType": "address",
          "name": "",
          "type": "address"
        }
      ],
      "name": "counter",
      "outputs": [
        {
          "internalType": "uint256",
          "name": "",
          "type": "uint256"
        }
      ],
      "stateMutability": "view",
      "type": "function"
    },
    {
      "inputs": [],
      "name": "extension",
      "outputs": [
        {
          "internalType": "uint256",
          "name": "",
          "type": "uint256"
        }
      ],
      "stateMutability": "view",
      "type": "function"
    },
    {
      "inputs": [
        {
          "internalType": "address",
          "name": "",
          "type": "address"
        },
        {
          "internalType": "uint256",
          "name": "",
          "type": "uint256"
        }
      ],
      "name": "games",
      "outputs": [
        {
          "internalType": "uint256",
          "name": "deadline",
          "type": "uint256"
        },
        {
          "internalType": "uint256",
          "name": "price",
          "type": "uint256"
        },
        {
          "internalType": "uint256",
          "name": "prize",
          "type": "uint256"
        },
        {
          "internalType": "address",
          "name": "lastParticipant",
          "type": "address"
        },
        {
          "internalType": "uint8",
          "name": "status",
          "type": "uint8"
        }
      ],
      "stateMutability": "view",
      "type": "function"
    },
    {
      "inputs": [
        {
          "internalType": "address",
          "name": "_host",
          "type": "address"
        }
      ],
      "name": "getActiveGame",
      "outputs": [
        {
          "components": [
            {
              "internalType": "uint256",
              "name": "deadline",
              "type": "uint256"
            },
            {
              "internalType": "uint256",
              "name": "price",
              "type": "uint256"
            },
            {
              "internalType": "uint256",
              "name": "prize",
              "type": "uint256"
            },
            {
              "internalType": "address",
              "name": "lastParticipant",
              "type": "address"
            },
            {
              "internalType": "uint8",
              "name": "status",
              "type": "uint8"
            }
          ],
          "internalType": "struct FoMoMe.Game",
          "name": "game",
          "type": "tuple"
        }
      ],
      "stateMutability": "view",
      "type": "function"
    },
    {
      "inputs": [],
      "name": "getActiveHosts",
      "outputs": [
        {
          "internalType": "address[]",
          "name": "",
          "type": "address[]"
        }
      ],
      "stateMutability": "view",
      "type": "function"
    },
    {
      "inputs": [
        {
          "internalType": "address",
          "name": "_host",
          "type": "address"
        },
        {
          "internalType": "uint256",
          "name": "_n",
          "type": "uint256"
        }
      ],
      "name": "getGame",
      "outputs": [
        {
          "components": [
            {
              "internalType": "uint256",
              "name": "deadline",
              "type": "uint256"
            },
            {
              "internalType": "uint256",
              "name": "price",
              "type": "uint256"
            },
            {
              "internalType": "uint256",
              "name": "prize",
              "type": "uint256"
            },
            {
              "internalType": "address",
              "name": "lastParticipant",
              "type": "address"
            },
            {
              "internalType": "uint8",
              "name": "status",
              "type": "uint8"
            }
          ],
          "internalType": "struct FoMoMe.Game",
          "name": "game",
          "type": "tuple"
        }
      ],
      "stateMutability": "view",
      "type": "function"
    },
    {
      "inputs": [
        {
          "internalType": "address",
          "name": "_host",
          "type": "address"
        }
      ],
      "name": "join",
      "outputs": [],
      "stateMutability": "payable",
      "type": "function"
    },
    {
      "inputs": [],
      "name": "minEntryPrice",
      "outputs": [
        {
          "internalType": "uint256",
          "name": "",
          "type": "uint256"
        }
      ],
      "stateMutability": "view",
      "type": "function"
    },
    {
      "inputs": [],
      "name": "minimumDuration",
      "outputs": [
        {
          "internalType": "uint256",
          "name": "",
          "type": "uint256"
        }
      ],
      "stateMutability": "view",
      "type": "function"
    },
    {
      "inputs": [],
      "name": "owner",
      "outputs": [
        {
          "internalType": "address",
          "name": "",
          "type": "address"
        }
      ],
      "stateMutability": "view",
      "type": "function"
    },
    {
      "inputs": [
        {
          "internalType": "uint256",
          "name": "_entryPrice",
          "type": "uint256"
        }
      ],
      "name": "start",
      "outputs": [],
      "stateMutability": "payable",
      "type": "function"
    }
  ],
  "bytecode": "0x608060405234801561001057600080fd5b506001600081905580546001600160a01b03191633179055610e10600255662386f26fc10000600455610258600355610e8c8061004e6000396000f3fe6080604052600436106100a75760003560e01c8063600bbf8511610064578063600bbf85146101d85780637bf77345146101ee5780638da5cb5b1461025757806395805dad1461028f578063c12327b8146102a2578063ee61ff96146102cf57600080fd5b806311471230146100ac57806328ffe6c8146100ce5780632a8ec9b8146100e15780632d5537b01461017c5780633e3ee5a2146101a05780634953bd75146101b6575b600080fd5b3480156100b857600080fd5b506100cc6100c7366004610cf1565b6102ef565b005b6100cc6100dc366004610cf1565b6105be565b3480156100ed57600080fd5b506101436100fc366004610d0c565b60056020908152600092835260408084209091529082529020805460018201546002830154600390930154919290916001600160a01b03811690600160a01b900460ff1685565b604080519586526020860194909452928401919091526001600160a01b0316606083015260ff16608082015260a0015b60405180910390f35b34801561018857600080fd5b5061019260035481565b604051908152602001610173565b3480156101ac57600080fd5b5061019260025481565b3480156101c257600080fd5b506101cb610777565b6040516101739190610d36565b3480156101e457600080fd5b5061019260045481565b3480156101fa57600080fd5b5061020e610209366004610cf1565b610788565b60405161017391908151815260208083015190820152604080830151908201526060808301516001600160a01b03169082015260809182015160ff169181019190915260a00190565b34801561026357600080fd5b50600154610277906001600160a01b031681565b6040516001600160a01b039091168152602001610173565b6100cc61029d366004610d83565b610803565b3480156102ae57600080fd5b506101926102bd366004610cf1565b60066020526000908152604090205481565b3480156102db57600080fd5b5061020e6102ea366004610d0c565b610a17565b6102f7610a8b565b6001600160a01b03811660009081526006602090815260408083205460058352818420818552909252909120805442116103785760405162461bcd60e51b815260206004820152601860248201527f5468652067616d65206973206e6f74206f76657220796574000000000000000060448201526064015b60405180910390fd5b6003810154600160a01b900460ff166001146103c45760405162461bcd60e51b815260206004820152600b60248201526a139bc819d85b59481e595d60aa1b604482015260640161036f565b6000606482600201546103d79190610db2565b6103e290605f610dd4565b90506000606483600201546103f79190610db2565b610402906003610dd4565b90506000606484600201546104179190610db2565b610422906001610dd4565b90506000606485600201546104379190610db2565b610442906001610dd4565b6001600160a01b038816600090815260066020526040812080549293509061046983610deb565b9091555061047a9050600788610ab5565b5060038501546040516001600160a01b039091169085156108fc029086906000818181858888f193505050501580156104b7573d6000803e3d6000fd5b50604051339084156108fc029085906000818181858888f193505050501580156104e5573d6000803e3d6000fd5b506040516001600160a01b0388169083156108fc029084906000818181858888f1935050505015801561051c573d6000803e3d6000fd5b506001546040516001600160a01b039091169082156108fc029083906000818181858888f19350505050158015610557573d6000803e3d6000fd5b506003850154604080516001600160a01b038a81168252602082018a90529181018790529116907f6c903d7c4022a506a8246825b74bbdaf0a524f414e20123d3137bfc49aaf0ea39060600160405180910390a25050505050506105bb6001600055565b50565b6001600160a01b038116600090815260066020908152604080832054600583528184208185529092529091206003810154600160a01b900460ff166001146106365760405162461bcd60e51b815260206004820152600b60248201526a139bc819d85b59481e595d60aa1b604482015260640161036f565b805442106106795760405162461bcd60e51b815260206004820152601060248201526f2a34329033b0b6b29034b99037bb32b960811b604482015260640161036f565b80600101543410156106c35760405162461bcd60e51b8152602060048201526013602482015272115b9d1c9e481c1c9a58d9481b9bdd081b595d606a1b604482015260640161036f565b348160020160008282546106d79190610e04565b9091555050600380820180546001600160a01b031916331790555460018201546107019034610db2565b61070b9190610dd4565b81600001600082825461071e9190610e04565b90915550508054604080516001600160a01b03861681523460208201529081019190915233907f6e24f15979ee7e1b113e14aceec4784a355744d0c9e37c6fae5d82ed4bf3b9ae906060015b60405180910390a2505050565b60606107836007610ad3565b905090565b610790610c9a565b506001600160a01b0390811660009081526006602090815260408083205460058352818420908452825291829020825160a081018452815481526001820154928101929092526002810154928201929092526003909101549182166060820152600160a01b90910460ff16608082015290565b336000818152600660209081526040808320546005835281842081855290925290912060030154600160a01b900460ff16156108815760405162461bcd60e51b815260206004820152601b60248201527f456e64207468652070726576696f75732067616d652066697273740000000000604482015260640161036f565b823410156108c75760405162461bcd60e51b81526020600482015260136024820152725061792074686520656e74727920707269636560681b604482015260640161036f565b6004548310156109195760405162461bcd60e51b815260206004820152601d60248201527f456e747279207072696365206174206c6561737420302e303120455448000000604482015260640161036f565b6040518060a00160405280600254426109329190610e04565b81526020808201869052346040808401919091526001600160a01b038087166060808601829052600160809687018190526000928352600586528483208984528652918490208751815594870151918501919091559185015160028401559084015160039092018054949093015160ff16600160a01b026001600160a81b03199094169116179190911790556109c9600783610ae7565b50816001600160a01b03167f7efd2a2ab877ff702ea2e0917699da779d5a19d2566ca4afc14ab74e1c35b91660025442610a039190610e04565b60408051918252602082018790520161076a565b610a1f610c9a565b506001600160a01b03918216600090815260056020908152604080832093835292815290829020825160a081018452815481526001820154928101929092526002810154928201929092526003909101549182166060820152600160a01b90910460ff16608082015290565b600260005403610aae57604051633ee5aeb560e01b815260040160405180910390fd5b6002600055565b6000610aca836001600160a01b038416610afc565b90505b92915050565b60606000610ae083610bef565b9392505050565b6000610aca836001600160a01b038416610c4b565b60008181526001830160205260408120548015610be5576000610b20600183610e17565b8554909150600090610b3490600190610e17565b9050808214610b99576000866000018281548110610b5457610b54610e2a565b9060005260206000200154905080876000018481548110610b7757610b77610e2a565b6000918252602080832090910192909255918252600188019052604090208390555b8554869080610baa57610baa610e40565b600190038181906000526020600020016000905590558560010160008681526020019081526020016000206000905560019350505050610acd565b6000915050610acd565b606081600001805480602002602001604051908101604052809291908181526020018280548015610c3f57602002820191906000526020600020905b815481526020019060010190808311610c2b575b50505050509050919050565b6000818152600183016020526040812054610c9257508154600181810184556000848152602080822090930184905584548482528286019093526040902091909155610acd565b506000610acd565b6040518060a0016040528060008152602001600081526020016000815260200160006001600160a01b03168152602001600060ff1681525090565b80356001600160a01b0381168114610cec57600080fd5b919050565b600060208284031215610d0357600080fd5b610aca82610cd5565b60008060408385031215610d1f57600080fd5b610d2883610cd5565b946020939093013593505050565b6020808252825182820181905260009190848201906040850190845b81811015610d775783516001600160a01b031683529284019291840191600101610d52565b50909695505050505050565b600060208284031215610d9557600080fd5b5035919050565b634e487b7160e01b600052601160045260246000fd5b600082610dcf57634e487b7160e01b600052601260045260246000fd5b500490565b8082028115828204841417610acd57610acd610d9c565b600060018201610dfd57610dfd610d9c565b5060010190565b80820180821115610acd57610acd610d9c565b81810381811115610acd57610acd610d9c565b634e487b7160e01b600052603260045260246000fd5b634e487b7160e01b600052603160045260246000fdfea264697066735822122057c98d4c1ffe2aaed1e392dd7c1c3291baf1571263bd73fa23dfeccee63e154664736f6c63430008140033",
  "linkReferences": {},
  "deployedLinkReferences": {}
}